:040000000C946C00F0
:100004000C9400000C9400000C9400000C9400006C
:100014000C9400000C9400000C9400000C9400005C
:100024000C9400000C9400000C9400000C9400004C
:100034000C9400000C9400000C9400000C9400003C
:100044000C9400000C9400000C9400000C9400002C
:100054001027E80364000A000100001000011000EA
:100064000100313233340000000050494E203A2060
:10007400004D6173756B6B616E2050494E00506189
:100084007373776F72642042656E61722020202042
:10009400200050617373776F72642053616C6168E0
:1000A40020202020000080C004009B02660007007E
:1000B40060026E000D006702750014007402820075
:1000C400130088029600040006006A000200A502DC
:1000D400AA000000F894EE27ECBBF1E0FBBFEBBFF5
:1000E400E5BFF8E1F1BDE1BD8DE0A2E0BB27ED93F2
:1000F4008A95E9F780E098E0A0E6ED930197E9F7A7
:10010400ECEAF0E085919591009761F0A591B591A5
:1001140005901590BF01F00105900D920197E1F74C
:10012400FB01F0CFEFE5EDBFE8E0EEBFC0E6D2E0C3
:100134000C946001E0E00E949D02E0E6F2E00E947F
:10014400A202EFE70E94A602989909C00E94AD029C
:10015400E1E40E94B2020E94AD020E94B6029999A3
:1001640009C00E94AD02E3E30E94B2020E94AD0204
:100174000E94B6029A9909C00E94AD02E2E30E946D
:10018400B2020E94AD020E94B6029B9909C00E946D
:10019400AD02E1E30E94B2020E94AD020E94B602E7
:1001A400EFEB0E94A602989909C00E94AD02E2E416
:1001B4000E94B2020E94AD020E94B602999909C03F
:1001C4000E94AD02E6E30E94B2020E94AD020E94C8
:1001D400B6029A9909C00E94AD02E5E30E94B202F8
:1001E4000E94AD020E94B6029B9909C00E94AD0212
:1001F400E4E30E94B2020E94AD020E94B602EFED57
:100204000E94A602989909C00E94AD02E3E40E94EC
:10021400B2020E94AD020E94B602999909C00E94DE
:10022400AD02E9E30E94B2020E94AD020E94B6024E
:100234009A9909C00E94AD02E8E30E94B2020E94AA
:10024400AD020E94B6029B9909C00E94AD02E7E389
:100254000E94B2020E94AD020E94B602EFEE0E941A
:10026400A602989909C00E94AD02E4E40E94B20279
:100274000E94AD020E94B602999909C00E94AD0283
:10028400E3E20E94B2020E94AD020E94B6029A9971
:1002940009C00E94AD02E0E30E94B2020E94AD02D6
:1002A4000E94B6029B9909C00E94AD02EAE20E9434
:1002B400B2020E94AD020E94B6020895E0E0EBBBD8
:1002C400EABBE8BBE7BBEFEFE5BBE0EFE4BBE0E094
:1002D400E2BBE7E0E1BBE0E0E3BFE2BFECBFEFBDC0
:1002E400EEBDEDBDECBDE7BDE6BDEBBDEABDE9BDD0
:1002F400E8BDE2BDE5BDE4BDE3BDE5BFE4BFE9BFE4
:10030400EAB9E0E8E8B9E0E0E0BFE6B9EDB9E6BF94
:10031400E0E1EA930E944E02EBE9F2E0FA93EA93F9
:100324000E9493022F01882499240E941D020E9496
:10033400C602E7E6F2E00E94A2028414950410F4D7
:10034400F9DEFBCFF201EF55FD4FA0E0A0830E9440
:100354001D02EBE9F2E0FA93EA93E0EAF2E0FA93A1
:10036400EA930E948102E03059F4919A929A0E9491
:10037400C602E4E7F2E00E94A202662477240BC0DE
:10038400919892980E94C602E8E8F2E00E94A202C4
:10039400F30131963F0188249924E3E0F0E06E16DE
:1003A4007F0610F0909AFECFE8E8F3E10E94CB02BA
:1003B40091989298BACFFFCFE881E07111F0DC9A5E
:1003C40001C0DC98E881E07211F0DD9A01C0DD988B
:1003D400E881E07411F0DE9A01C0DE98E881E078EB
:1003E40011F0DF9A01C0DF988BE08A95F1F7DA9A71
:1003F4008BE18A95F1F7DA988BE18A95F1F77DC064
:10040400E881EA93D9DFE881E295E883E881EA9319
:10041400D3DF88EC90E00197F1F76FC0E881F0E05A
:10042400EB55FD4FE081A981EA0FEA93E9DFB9803A
:10043400A88022960895E2E00E94CF02ECE0EA93BD
:10044400DFDFE1E00E94CF02E0E0AE2EBE2E089591
:10045400A881AA3011F0BD1448F0E0E0EA93A39417
:10046400AA92DCDFA881AA3009F447C0B394D89AD1
:10047400E881EA93C5DFD89840C01A93A981BA816C
:10048400ED91A983BA831E2FE03019F01A93E0DFAF
:10049400F5CF188123960895D49AD59AD69AD79AE7
:1004A400D29AD09AD19ADA98D898D998D880E881F3
:1004B400E058E093A702E881E054E093A802E4E165
:1004C400F0E00E94CB020E94D5020E94D5020E9455
:1004D400D502E0E2EA9370DF80E991E00197F1F759
:1004E400E8E2EA938DDFE4E0EA938ADFE5E8EA9361
:1004F40087DFE6E0EA9384DF9EDF21960895E991A1
:10050400F991A991B9916D917191671721F46623BD
:10051400D1F7EE270895671BE1F3E1E008F4E25018
:100524000895A991B991EE27FF276D91662311F0E3
:100534003196FBCF0895EA93E1E0EA930C9410021C
:10054400FA93EA930C943F02E5BBEEE1F0E0FA93F0
:10055400EA930C94DE02A0EAB2E0A80DB91D089556
:10056400EC93E82DEA5FE7CFEC91EA930E942A022C
:10057400F40131964F01909AE4E6F0E0FA93EA939D
:100584000E94DE0290980895E0E0EA93EA930C94C6
:100594001002FA93EA930C94DE02EA930E94020298
:1005A400E3E0F0E0F6CFE0E3EA930E94DE0180E9C5
:1005B40091E00197F1F70895E991F991309639F0B6
:1005C40080EA9FE00197F1F7A8953197C9F708955C
:00000001FF
